{
  "_format": "hh-sol-artifact-1",
  "contractName": "AlchemyMsg",
  "sourceName": "contracts/Alchemy/AlchemyMsg.sol",
  "abi": [
    {
      "inputs": [
        {
          "internalType": "string",
          "name": "_initMsg",
          "type": "string"
        }
      ],
      "stateMutability": "nonpayable",
      "type": "constructor"
    },
    {
      "anonymous": false,
      "inputs": [
        {
          "indexed": false,
          "internalType": "string",
          "name": "_oldMsg",
          "type": "string"
        },
        {
          "indexed": false,
          "internalType": "string",
          "name": "_newMsg",
          "type": "string"
        }
      ],
      "name": "msgUpdated",
      "type": "event"
    },
    {
      "inputs": [],
      "name": "getMsg",
      "outputs": [
        {
          "internalType": "string",
          "name": "",
          "type": "string"
        }
      ],
      "stateMutability": "view",
      "type": "function"
    },
    {
      "inputs": [
        {
          "internalType": "string",
          "name": "_newMsg",
          "type": "string"
        }
      ],
      "name": "updateMsg",
      "outputs": [],
      "stateMutability": "nonpayable",
      "type": "function"
    }
  ],
  "bytecode": "0x608060405234801561001057600080fd5b5060405161065838038061065883398101604081905261002f916100e2565b8051610042906000906020840190610049565b5050610202565b828054610055906101b1565b90600052602060002090601f01602090048101928261007757600085556100bd565b82601f1061009057805160ff19168380011785556100bd565b828001600101855582156100bd579182015b828111156100bd5782518255916020019190600101906100a2565b506100c99291506100cd565b5090565b5b808211156100c957600081556001016100ce565b600060208083850312156100f557600080fd5b82516001600160401b038082111561010c57600080fd5b818501915085601f83011261012057600080fd5b815181811115610132576101326101ec565b604051601f8201601f19908116603f0116810190838211818310171561015a5761015a6101ec565b81604052828152888684870101111561017257600080fd5b600093505b828410156101945784840186015181850187015292850192610177565b828411156101a55760008684830101525b98975050505050505050565b600181811c908216806101c557607f821691505b602082108114156101e657634e487b7160e01b600052602260045260246000fd5b50919050565b634e487b7160e01b600052604160045260246000fd5b610447806102116000396000f3fe608060405234801561001057600080fd5b50600436106100365760003560e01c80638de8f2861461003b578063b5fdeb2314610050575b600080fd5b61004e61004936600461027a565b61006e565b005b61005861014f565b6040516100659190610378565b60405180910390f35b600080805461007c906103c0565b80601f01602080910402602001604051908101604052809291908181526020018280546100a8906103c0565b80156100f55780601f106100ca576101008083540402835291602001916100f5565b820191906000526020600020905b8154815290600101906020018083116100d857829003601f168201915b50508551939450610111936000935060208701925090506101e1565b507fbf8edbc6e8d6bd396debe8f989caecc0ee53f429a66afc80138cd31ce92fe5678183604051610143929190610392565b60405180910390a15050565b60606000805461015e906103c0565b80601f016020809104026020016040519081016040528092919081815260200182805461018a906103c0565b80156101d75780601f106101ac576101008083540402835291602001916101d7565b820191906000526020600020905b8154815290600101906020018083116101ba57829003601f168201915b5050505050905090565b8280546101ed906103c0565b90600052602060002090601f01602090048101928261020f5760008555610255565b82601f1061022857805160ff1916838001178555610255565b82800160010185558215610255579182015b8281111561025557825182559160200191906001019061023a565b50610261929150610265565b5090565b5b808211156102615760008155600101610266565b60006020828403121561028c57600080fd5b813567ffffffffffffffff808211156102a457600080fd5b818401915084601f8301126102b857600080fd5b8135818111156102ca576102ca6103fb565b604051601f8201601f19908116603f011681019083821181831017156102f2576102f26103fb565b8160405282815287602084870101111561030b57600080fd5b826020860160208301376000928101602001929092525095945050505050565b6000815180845260005b8181101561035157602081850181015186830182015201610335565b81811115610363576000602083870101525b50601f01601f19169290920160200192915050565b60208152600061038b602083018461032b565b9392505050565b6040815260006103a5604083018561032b565b82810360208401526103b7818561032b565b95945050505050565b600181811c908216806103d457607f821691505b602082108114156103f557634e487b7160e01b600052602260045260246000fd5b50919050565b634e487b7160e01b600052604160045260246000fdfea26469706673582212203bf1d2ef0d070400a95934b38d1a9a3bf8e35c02a5232c198e63f9e5291b597164736f6c63430008070033",
  "linkReferences": {},
  "deployedLinkReferences": {}
}