{
  "_format": "hh-sol-artifact-1",
  "contractName": "HToken",
  "sourceName": "contracts/Hardhat/HToken.sol",
  "abi": [
    {
      "inputs": [],
      "stateMutability": "nonpayable",
      "type": "constructor"
    },
    {
      "inputs": [
        {
          "internalType": "address",
          "name": "_walletAddr",
          "type": "address"
        }
      ],
      "name": "balanceOf",
      "outputs": [
        {
          "internalType": "uint256",
          "name": "",
          "type": "uint256"
        }
      ],
      "stateMutability": "view",
      "type": "function"
    },
    {
      "inputs": [],
      "name": "maxSupply",
      "outputs": [
        {
          "internalType": "uint256",
          "name": "",
          "type": "uint256"
        }
      ],
      "stateMutability": "view",
      "type": "function"
    },
    {
      "inputs": [],
      "name": "owner",
      "outputs": [
        {
          "internalType": "address",
          "name": "",
          "type": "address"
        }
      ],
      "stateMutability": "view",
      "type": "function"
    },
    {
      "inputs": [],
      "name": "tokenName",
      "outputs": [
        {
          "internalType": "string",
          "name": "",
          "type": "string"
        }
      ],
      "stateMutability": "view",
      "type": "function"
    },
    {
      "inputs": [],
      "name": "tokenSymbol",
      "outputs": [
        {
          "internalType": "string",
          "name": "",
          "type": "string"
        }
      ],
      "stateMutability": "view",
      "type": "function"
    },
    {
      "inputs": [
        {
          "internalType": "address",
          "name": "_to",
          "type": "address"
        },
        {
          "internalType": "uint256",
          "name": "_amount",
          "type": "uint256"
        }
      ],
      "name": "transfer",
      "outputs": [],
      "stateMutability": "nonpayable",
      "type": "function"
    }
  ],
  "bytecode": "0x60c0604052600d60808190526c2430b9323430ba102a37b5b2b760991b60a090815261002e916000919061009a565b506040805180820190915260038082526212121560ea1b60209092019182526100599160019161009a565b5061271060035534801561006c57600080fd5b50600280546001600160a01b031916339081179091556003546000918252600460205260409091205561016e565b8280546100a690610133565b90600052602060002090601f0160209004810192826100c8576000855561010e565b82601f106100e157805160ff191683800117855561010e565b8280016001018555821561010e579182015b8281111561010e5782518255916020019190600101906100f3565b5061011a92915061011e565b5090565b5b8082111561011a576000815560010161011f565b600181811c9082168061014757607f821691505b6020821081141561016857634e487b7160e01b600052602260045260246000fd5b50919050565b6103c78061017d6000396000f3fe608060405234801561001057600080fd5b50600436106100625760003560e01c80636c02a9311461006757806370a08231146100855780637b61c320146100bc5780638da5cb5b146100c4578063a9059cbb146100ef578063d5abeb0114610104575b600080fd5b61006f61010d565b60405161007c91906102bc565b60405180910390f35b6100ae610093366004610270565b6001600160a01b031660009081526004602052604090205490565b60405190815260200161007c565b61006f61019b565b6002546100d7906001600160a01b031681565b6040516001600160a01b03909116815260200161007c565b6101026100fd366004610292565b6101a8565b005b6100ae60035481565b6000805461011a90610340565b80601f016020809104026020016040519081016040528092919081815260200182805461014690610340565b80156101935780601f1061016857610100808354040283529160200191610193565b820191906000526020600020905b81548152906001019060200180831161017657829003601f168201915b505050505081565b6001805461011a90610340565b336000908152600460205260409020548111156101ff5760405162461bcd60e51b81526020600482015260116024820152706e6f7420656e6f75676820746f6b656e7360781b604482015260640160405180910390fd5b336000908152600460205260408120805483929061021e908490610329565b90915550506001600160a01b0382166000908152600460205260408120805483929061024b908490610311565b90915550505050565b80356001600160a01b038116811461026b57600080fd5b919050565b60006020828403121561028257600080fd5b61028b82610254565b9392505050565b600080604083850312156102a557600080fd5b6102ae83610254565b946020939093013593505050565b600060208083528351808285015260005b818110156102e9578581018301518582016040015282016102cd565b818111156102fb576000604083870101525b50601f01601f1916929092016040019392505050565b600082198211156103245761032461037b565b500190565b60008282101561033b5761033b61037b565b500390565b600181811c9082168061035457607f821691505b6020821081141561037557634e487b7160e01b600052602260045260246000fd5b50919050565b634e487b7160e01b600052601160045260246000fdfea2646970667358221220a3c9489848055c622e8f8938b7cd97e642d8bfb7295893b6e492a164c070e01864736f6c63430008070033",
  "linkReferences": {},
  "deployedLinkReferences": {}
}