{
  "_format": "hh-sol-artifact-1",
  "contractName": "PriceConsumerV3",
  "sourceName": "contracts/Chainlink/PriceConsumerV3.sol",
  "abi": [
    {
      "inputs": [],
      "stateMutability": "nonpayable",
      "type": "constructor"
    },
    {
      "inputs": [],
      "name": "getLatestPrice",
      "outputs": [
        {
          "internalType": "int256",
          "name": "",
          "type": "int256"
        }
      ],
      "stateMutability": "view",
      "type": "function"
    }
  ],
  "bytecode": "0x608060405234801561001057600080fd5b50600080546001600160a01b031916739326bfa02add2366b30bacb125260af641031331179055610177806100466000396000f3fe608060405234801561001057600080fd5b506004361061002b5760003560e01c80638e15f47314610030575b600080fd5b61003861004a565b60405190815260200160405180910390f35b6000805460408051633fabe5a360e21b8152905183926001600160a01b03169163feaf968c9160048083019260a0929190829003018186803b15801561008f57600080fd5b505afa1580156100a3573d6000803e3d6000fd5b505050506040513d601f19601f820116820180604052508101906100c791906100f1565b509195945050505050565b805169ffffffffffffffffffff811681146100ec57600080fd5b919050565b600080600080600060a0868803121561010957600080fd5b610112866100d2565b9450602086015193506040860151925060608601519150610135608087016100d2565b9050929550929590935056fea2646970667358221220c9db827846db364adbf74f9a1aec5e1b25f1fe7484ffca753dea5305e2e7836664736f6c63430008070033",
  "linkReferences": {},
  "deployedLinkReferences": {}
}