{
  "_format": "hh-sol-artifact-1",
  "contractName": "AlchemyRahat",
  "sourceName": "contracts/AlchemyRahat.sol",
  "abi": [
    {
      "inputs": [],
      "stateMutability": "nonpayable",
      "type": "constructor"
    },
    {
      "anonymous": false,
      "inputs": [
        {
          "indexed": true,
          "internalType": "address",
          "name": "owner",
          "type": "address"
        },
        {
          "indexed": true,
          "internalType": "address",
          "name": "approved",
          "type": "address"
        },
        {
          "indexed": true,
          "internalType": "uint256",
          "name": "tokenId",
          "type": "uint256"
        }
      ],
      "name": "Approval",
      "type": "event"
    },
    {
      "anonymous": false,
      "inputs": [
        {
          "indexed": true,
          "internalType": "address",
          "name": "owner",
          "type": "address"
        },
        {
          "indexed": true,
          "internalType": "address",
          "name": "operator",
          "type": "address"
        },
        {
          "indexed": false,
          "internalType": "bool",
          "name": "approved",
          "type": "bool"
        }
      ],
      "name": "ApprovalForAll",
      "type": "event"
    },
    {
      "anonymous": false,
      "inputs": [
        {
          "indexed": true,
          "internalType": "address",
          "name": "from",
          "type": "address"
        },
        {
          "indexed": true,
          "internalType": "address",
          "name": "to",
          "type": "address"
        },
        {
          "indexed": true,
          "internalType": "uint256",
          "name": "tokenId",
          "type": "uint256"
        }
      ],
      "name": "Transfer",
      "type": "event"
    },
    {
      "inputs": [
        {
          "internalType": "address",
          "name": "to",
          "type": "address"
        },
        {
          "internalType": "uint256",
          "name": "tokenId",
          "type": "uint256"
        }
      ],
      "name": "approve",
      "outputs": [],
      "stateMutability": "nonpayable",
      "type": "function"
    },
    {
      "inputs": [
        {
          "internalType": "address",
          "name": "owner",
          "type": "address"
        }
      ],
      "name": "balanceOf",
      "outputs": [
        {
          "internalType": "uint256",
          "name": "",
          "type": "uint256"
        }
      ],
      "stateMutability": "view",
      "type": "function"
    },
    {
      "inputs": [
        {
          "internalType": "uint256",
          "name": "_tokenID",
          "type": "uint256"
        }
      ],
      "name": "generateSVG",
      "outputs": [
        {
          "internalType": "string",
          "name": "",
          "type": "string"
        }
      ],
      "stateMutability": "view",
      "type": "function"
    },
    {
      "inputs": [
        {
          "internalType": "uint256",
          "name": "tokenId",
          "type": "uint256"
        }
      ],
      "name": "getApproved",
      "outputs": [
        {
          "internalType": "address",
          "name": "",
          "type": "address"
        }
      ],
      "stateMutability": "view",
      "type": "function"
    },
    {
      "inputs": [
        {
          "internalType": "uint256",
          "name": "_tokenID",
          "type": "uint256"
        }
      ],
      "name": "getLv",
      "outputs": [
        {
          "internalType": "string",
          "name": "",
          "type": "string"
        }
      ],
      "stateMutability": "view",
      "type": "function"
    },
    {
      "inputs": [
        {
          "internalType": "uint256",
          "name": "_tokenID",
          "type": "uint256"
        }
      ],
      "name": "getTokenURI",
      "outputs": [
        {
          "internalType": "string",
          "name": "",
          "type": "string"
        }
      ],
      "stateMutability": "view",
      "type": "function"
    },
    {
      "inputs": [
        {
          "internalType": "address",
          "name": "owner",
          "type": "address"
        },
        {
          "internalType": "address",
          "name": "operator",
          "type": "address"
        }
      ],
      "name": "isApprovedForAll",
      "outputs": [
        {
          "internalType": "bool",
          "name": "",
          "type": "bool"
        }
      ],
      "stateMutability": "view",
      "type": "function"
    },
    {
      "inputs": [],
      "name": "mint",
      "outputs": [],
      "stateMutability": "nonpayable",
      "type": "function"
    },
    {
      "inputs": [],
      "name": "name",
      "outputs": [
        {
          "internalType": "string",
          "name": "",
          "type": "string"
        }
      ],
      "stateMutability": "view",
      "type": "function"
    },
    {
      "inputs": [
        {
          "internalType": "uint256",
          "name": "tokenId",
          "type": "uint256"
        }
      ],
      "name": "ownerOf",
      "outputs": [
        {
          "internalType": "address",
          "name": "",
          "type": "address"
        }
      ],
      "stateMutability": "view",
      "type": "function"
    },
    {
      "inputs": [
        {
          "internalType": "address",
          "name": "from",
          "type": "address"
        },
        {
          "internalType": "address",
          "name": "to",
          "type": "address"
        },
        {
          "internalType": "uint256",
          "name": "tokenId",
          "type": "uint256"
        }
      ],
      "name": "safeTransferFrom",
      "outputs": [],
      "stateMutability": "nonpayable",
      "type": "function"
    },
    {
      "inputs": [
        {
          "internalType": "address",
          "name": "from",
          "type": "address"
        },
        {
          "internalType": "address",
          "name": "to",
          "type": "address"
        },
        {
          "internalType": "uint256",
          "name": "tokenId",
          "type": "uint256"
        },
        {
          "internalType": "bytes",
          "name": "_data",
          "type": "bytes"
        }
      ],
      "name": "safeTransferFrom",
      "outputs": [],
      "stateMutability": "nonpayable",
      "type": "function"
    },
    {
      "inputs": [
        {
          "internalType": "address",
          "name": "operator",
          "type": "address"
        },
        {
          "internalType": "bool",
          "name": "approved",
          "type": "bool"
        }
      ],
      "name": "setApprovalForAll",
      "outputs": [],
      "stateMutability": "nonpayable",
      "type": "function"
    },
    {
      "inputs": [
        {
          "internalType": "bytes4",
          "name": "interfaceId",
          "type": "bytes4"
        }
      ],
      "name": "supportsInterface",
      "outputs": [
        {
          "internalType": "bool",
          "name": "",
          "type": "bool"
        }
      ],
      "stateMutability": "view",
      "type": "function"
    },
    {
      "inputs": [],
      "name": "symbol",
      "outputs": [
        {
          "internalType": "string",
          "name": "",
          "type": "string"
        }
      ],
      "stateMutability": "view",
      "type": "function"
    },
    {
      "inputs": [
        {
          "internalType": "uint256",
          "name": "tokenId",
          "type": "uint256"
        }
      ],
      "name": "tokenURI",
      "outputs": [
        {
          "internalType": "string",
          "name": "",
          "type": "string"
        }
      ],
      "stateMutability": "view",
      "type": "function"
    },
    {
      "inputs": [
        {
          "internalType": "uint256",
          "name": "_tokenID",
          "type": "uint256"
        }
      ],
      "name": "train",
      "outputs": [],
      "stateMutability": "nonpayable",
      "type": "function"
    },
    {
      "inputs": [
        {
          "internalType": "address",
          "name": "from",
          "type": "address"
        },
        {
          "internalType": "address",
          "name": "to",
          "type": "address"
        },
        {
          "internalType": "uint256",
          "name": "tokenId",
          "type": "uint256"
        }
      ],
      "name": "transferFrom",
      "outputs": [],
      "stateMutability": "nonpayable",
      "type": "function"
    }
  ],
  "bytecode": "0x608060405260646009553480156200001657600080fd5b50604080518082018252600c81526b105b18da195b5e54985a185d60a21b602080830191825283518085019094526006845265082988690a4960d31b908401528151919291620000699160009162000088565b5080516200007f90600190602084019062000088565b5050506200016b565b82805462000096906200012e565b90600052602060002090601f016020900481019282620000ba576000855562000105565b82601f10620000d557805160ff191683800117855562000105565b8280016001018555821562000105579182015b8281111562000105578251825591602001919060010190620000e8565b506200011392915062000117565b5090565b5b8082111562000113576000815560010162000118565b600181811c908216806200014357607f821691505b602082108114156200016557634e487b7160e01b600052602260045260246000fd5b50919050565b611ee4806200017b6000396000f3fe608060405234801561001057600080fd5b50600436106101165760003560e01c806342842e0e116100a257806395d89b411161007157806395d89b4114610246578063a22cb4651461024e578063b88d4fde14610261578063c87b56dd14610274578063e985e9c51461028757600080fd5b806342842e0e146101ec5780636352211e146101ff5780636dcee4ca1461021257806370a082311461022557600080fd5b80631249c58b116100e95780631249c58b1461019857806323b872dd146101a0578063292bbdc4146101b3578063368004ed146101c65780633bb3a24d146101d957600080fd5b806301ffc9a71461011b57806306fdde0314610143578063081812fc14610158578063095ea7b314610183575b600080fd5b61012e61012936600461178a565b6102c3565b60405190151581526020015b60405180910390f35b61014b610315565b60405161013a9190611c52565b61016b6101663660046117c4565b6103a7565b6040516001600160a01b03909116815260200161013a565b610196610191366004611760565b610434565b005b61019661054a565b6101966101ae36600461160c565b6105e5565b61014b6101c13660046117c4565b610616565b6101966101d43660046117c4565b610638565b61014b6101e73660046117c4565b61073b565b6101966101fa36600461160c565b6107a3565b61016b61020d3660046117c4565b6107be565b61014b6102203660046117c4565b610835565b6102386102333660046115be565b61087c565b60405190815260200161013a565b61014b610903565b61019661025c366004611724565b610912565b61019661026f366004611648565b61091d565b61014b6102823660046117c4565b610955565b61012e6102953660046115d9565b6001600160a01b03918216600090815260056020908152604080832093909416825291909152205460ff1690565b60006001600160e01b031982166380ac58cd60e01b14806102f457506001600160e01b03198216635b5e139f60e01b145b8061030f57506301ffc9a760e01b6001600160e01b03198316145b92915050565b60606000805461032490611d96565b80601f016020809104026020016040519081016040528092919081815260200182805461035090611d96565b801561039d5780601f106103725761010080835404028352916020019161039d565b820191906000526020600020905b81548152906001019060200180831161038057829003601f168201915b5050505050905090565b60006103b282610acc565b6104185760405162461bcd60e51b815260206004820152602c60248201527f4552433732313a20617070726f76656420717565727920666f72206e6f6e657860448201526b34b9ba32b73a103a37b5b2b760a11b60648201526084015b60405180910390fd5b506000908152600460205260409020546001600160a01b031690565b600061043f826107be565b9050806001600160a01b0316836001600160a01b031614156104ad5760405162461bcd60e51b815260206004820152602160248201527f4552433732313a20617070726f76616c20746f2063757272656e74206f776e656044820152603960f91b606482015260840161040f565b336001600160a01b03821614806104c957506104c98133610295565b61053b5760405162461bcd60e51b815260206004820152603860248201527f4552433732313a20617070726f76652063616c6c6572206973206e6f74206f7760448201527f6e6572206e6f7220617070726f76656420666f7220616c6c0000000000000000606482015260840161040f565b6105458383610ae9565b505050565b610558600780546001019055565b600061056360075490565b90506009548111156105b75760405162461bcd60e51b815260206004820152601f60248201527f736f72727920616c6c204e4654732068617665206265656e206d696e74656400604482015260640161040f565b6105c13382610b57565b6000818152600860205260408120556105e2816105dd8161073b565b610b71565b50565b6105ef3382610bfc565b61060b5760405162461bcd60e51b815260040161040f90611cb7565b610545838383610ce5565b60008181526008602052604090205460609061063181610e81565b9392505050565b61064181610acc565b6106975760405162461bcd60e51b815260206004820152602160248201527f746865204e465420796f7520656e746572656420646f65736e277420657869736044820152601d60fa1b606482015260840161040f565b336106a1826107be565b6001600160a01b0316146107015760405162461bcd60e51b815260206004820152602160248201527f796f7520617265204e4f5420746865206f776e6572206f662074686973204e466044820152601560fa1b606482015260840161040f565b60008181526008602052604090205461071b816001611d08565b600083815260086020526040902055610737826105dd8161073b565b5050565b6060600061074883610e81565b61075184610835565b604051602001610762929190611aab565b604051602081830303815290604052905061077c81610f7f565b60405160200161078c9190611b8b565b604051602081830303815290604052915050919050565b6105458383836040518060200160405280600081525061091d565b6000818152600260205260408120546001600160a01b03168061030f5760405162461bcd60e51b815260206004820152602960248201527f4552433732313a206f776e657220717565727920666f72206e6f6e657869737460448201526832b73a103a37b5b2b760b91b606482015260840161040f565b6060600061084283610616565b6040516020016108529190611854565b604051602081830303815290604052905061086c81610f7f565b60405160200161078c9190611bd0565b60006001600160a01b0382166108e75760405162461bcd60e51b815260206004820152602a60248201527f4552433732313a2062616c616e636520717565727920666f7220746865207a65604482015269726f206164647265737360b01b606482015260840161040f565b506001600160a01b031660009081526003602052604090205490565b60606001805461032490611d96565b6107373383836110d3565b6109273383610bfc565b6109435760405162461bcd60e51b815260040161040f90611cb7565b61094f848484846111a2565b50505050565b606061096082610acc565b6109c65760405162461bcd60e51b815260206004820152603160248201527f45524337323155524953746f726167653a2055524920717565727920666f72206044820152703737b732bc34b9ba32b73a103a37b5b2b760791b606482015260840161040f565b600082815260066020526040812080546109df90611d96565b80601f0160208091040260200160405190810160405280929190818152602001828054610a0b90611d96565b8015610a585780601f10610a2d57610100808354040283529160200191610a58565b820191906000526020600020905b815481529060010190602001808311610a3b57829003601f168201915b505050505090506000610a7660408051602081019091526000815290565b9050805160001415610a89575092915050565b815115610abb578082604051602001610aa3929190611825565b60405160208183030381529060405292505050919050565b610ac4846111d5565b949350505050565b6000908152600260205260409020546001600160a01b0316151590565b600081815260046020526040902080546001600160a01b0319166001600160a01b0384169081179091558190610b1e826107be565b6001600160a01b03167f8c5be1e5ebec7d5bd14f71427d1e84f3dd0314c0f7b2291e5b200ac8c7c3b92560405160405180910390a45050565b610737828260405180602001604052806000815250611296565b610b7a82610acc565b610bdd5760405162461bcd60e51b815260206004820152602e60248201527f45524337323155524953746f726167653a2055524920736574206f66206e6f6e60448201526d32bc34b9ba32b73a103a37b5b2b760911b606482015260840161040f565b6000828152600660209081526040909120825161054592840190611509565b6000610c0782610acc565b610c685760405162461bcd60e51b815260206004820152602c60248201527f4552433732313a206f70657261746f7220717565727920666f72206e6f6e657860448201526b34b9ba32b73a103a37b5b2b760a11b606482015260840161040f565b6000610c73836107be565b9050806001600160a01b0316846001600160a01b03161480610cba57506001600160a01b0380821660009081526005602090815260408083209388168352929052205460ff165b80610ac45750836001600160a01b0316610cd3846103a7565b6001600160a01b031614949350505050565b826001600160a01b0316610cf8826107be565b6001600160a01b031614610d5c5760405162461bcd60e51b815260206004820152602560248201527f4552433732313a207472616e736665722066726f6d20696e636f72726563742060448201526437bbb732b960d91b606482015260840161040f565b6001600160a01b038216610dbe5760405162461bcd60e51b8152602060048201526024808201527f4552433732313a207472616e7366657220746f20746865207a65726f206164646044820152637265737360e01b606482015260840161040f565b610dc9600082610ae9565b6001600160a01b0383166000908152600360205260408120805460019290610df2908490611d53565b90915550506001600160a01b0382166000908152600360205260408120805460019290610e20908490611d08565b909155505060008181526002602052604080822080546001600160a01b0319166001600160a01b0386811691821790925591518493918716917fddf252ad1be2c89b69c2b068fc378daa952ba7f163c4a11628f55a4df523b3ef91a4505050565b606081610ea55750506040805180820190915260018152600360fc1b602082015290565b8160005b8115610ecf5780610eb981611dd1565b9150610ec89050600a83611d20565b9150610ea9565b60008167ffffffffffffffff811115610eea57610eea611e42565b6040519080825280601f01601f191660200182016040528015610f14576020820181803683370190505b5090505b8415610ac457610f29600183611d53565b9150610f36600a86611dec565b610f41906030611d08565b60f81b818381518110610f5657610f56611e2c565b60200101906001600160f81b031916908160001a905350610f78600a86611d20565b9450610f18565b6060815160001415610f9f57505060408051602081019091526000815290565b6000604051806060016040528060408152602001611e6f6040913990506000600384516002610fce9190611d08565b610fd89190611d20565b610fe3906004611d34565b67ffffffffffffffff811115610ffb57610ffb611e42565b6040519080825280601f01601f191660200182016040528015611025576020820181803683370190505b509050600182016020820185865187015b80821015611091576003820191508151603f8160121c168501518453600184019350603f81600c1c168501518453600184019350603f8160061c168501518453600184019350603f8116850151845350600183019250611036565b50506003865106600181146110ad57600281146110c0576110c8565b603d6001830353603d60028303536110c8565b603d60018303535b509195945050505050565b816001600160a01b0316836001600160a01b031614156111355760405162461bcd60e51b815260206004820152601960248201527f4552433732313a20617070726f766520746f2063616c6c657200000000000000604482015260640161040f565b6001600160a01b03838116600081815260056020908152604080832094871680845294825291829020805460ff191686151590811790915591519182527f17307eab39ab6107e8899845ad3d59bd9653f200f220920489ca2b5937696c31910160405180910390a3505050565b6111ad848484610ce5565b6111b9848484846112c9565b61094f5760405162461bcd60e51b815260040161040f90611c65565b60606111e082610acc565b6112445760405162461bcd60e51b815260206004820152602f60248201527f4552433732314d657461646174613a2055524920717565727920666f72206e6f60448201526e3732bc34b9ba32b73a103a37b5b2b760891b606482015260840161040f565b600061125b60408051602081019091526000815290565b9050600081511161127b5760405180602001604052806000815250610631565b8061128584610e81565b60405160200161078c929190611825565b6112a083836113d6565b6112ad60008484846112c9565b6105455760405162461bcd60e51b815260040161040f90611c65565b60006001600160a01b0384163b156113cb57604051630a85bd0160e11b81526001600160a01b0385169063150b7a029061130d903390899088908890600401611c15565b602060405180830381600087803b15801561132757600080fd5b505af1925050508015611357575060408051601f3d908101601f19168201909252611354918101906117a7565b60015b6113b1573d808015611385576040519150601f19603f3d011682016040523d82523d6000602084013e61138a565b606091505b5080516113a95760405162461bcd60e51b815260040161040f90611c65565b805181602001fd5b6001600160e01b031916630a85bd0160e11b149050610ac4565b506001949350505050565b6001600160a01b03821661142c5760405162461bcd60e51b815260206004820181905260248201527f4552433732313a206d696e7420746f20746865207a65726f2061646472657373604482015260640161040f565b61143581610acc565b156114825760405162461bcd60e51b815260206004820152601c60248201527f4552433732313a20746f6b656e20616c7265616479206d696e74656400000000604482015260640161040f565b6001600160a01b03821660009081526003602052604081208054600192906114ab908490611d08565b909155505060008181526002602052604080822080546001600160a01b0319166001600160a01b03861690811790915590518392907fddf252ad1be2c89b69c2b068fc378daa952ba7f163c4a11628f55a4df523b3ef908290a45050565b82805461151590611d96565b90600052602060002090601f016020900481019282611537576000855561157d565b82601f1061155057805160ff191683800117855561157d565b8280016001018555821561157d579182015b8281111561157d578251825591602001919060010190611562565b5061158992915061158d565b5090565b5b80821115611589576000815560010161158e565b80356001600160a01b03811681146115b957600080fd5b919050565b6000602082840312156115d057600080fd5b610631826115a2565b600080604083850312156115ec57600080fd5b6115f5836115a2565b9150611603602084016115a2565b90509250929050565b60008060006060848603121561162157600080fd5b61162a846115a2565b9250611638602085016115a2565b9150604084013590509250925092565b6000806000806080858703121561165e57600080fd5b611667856115a2565b9350611675602086016115a2565b925060408501359150606085013567ffffffffffffffff8082111561169957600080fd5b818701915087601f8301126116ad57600080fd5b8135818111156116bf576116bf611e42565b604051601f8201601f19908116603f011681019083821181831017156116e7576116e7611e42565b816040528281528a602084870101111561170057600080fd5b82602086016020830137600060208483010152809550505050505092959194509250565b6000806040838503121561173757600080fd5b611740836115a2565b91506020830135801515811461175557600080fd5b809150509250929050565b6000806040838503121561177357600080fd5b61177c836115a2565b946020939093013593505050565b60006020828403121561179c57600080fd5b813561063181611e58565b6000602082840312156117b957600080fd5b815161063181611e58565b6000602082840312156117d657600080fd5b5035919050565b600081518084526117f5816020860160208601611d6a565b601f01601f19169290920160200192915050565b6000815161181b818560208601611d6a565b9290920192915050565b60008351611837818460208801611d6a565b83519083019061184b818360208801611d6a565b01949350505050565b7f3c73766720786d6c6e733d22687474703a2f2f7777772e77332e6f72672f323081527f30302f73766722207072657365727665417370656374526174696f3d22784d6960208201527f6e594d696e206d656574222076696577426f783d223020302033353020333530604082015261111f60f11b60608201527f3c7374796c653e2e62617365207b2066696c6c3a2077686974653b20666f6e7460628201527f2d66616d696c793a2073657269663b20666f6e742d73697a653a20313470783b608282015269103e9e17b9ba3cb6329f60b11b60a28201527f3c726563742077696474683d223130302522206865696768743d22313030252260ac8201526f103334b6361e91313630b1b59110179f60811b60cc8201527f3c7465787420783d223530252220793d223430252220636c6173733d2262617360dc8201527f652220646f6d696e616e742d626173656c696e653d226d6964646c652220746560fc820152723c3a16b0b731b437b91e9136b4b2323632911f60691b61011c820152662bb0b93934b7b960c91b61012f8201526000610631611a99611a02611a93611a80611a15610136880184565b661e17ba32bc3a1f60c91b815260070190565b7f3c7465787420783d223530252220793d223530252220636c6173733d2262617381527f652220646f6d696e616e742d626173656c696e653d226d6964646c65222074656020820152723c3a16b0b731b437b91e9136b4b2323632911f60691b604082015260530190565b6602632bb32b61d160cd1b815260070190565b86611809565b651e17b9bb339f60d11b815260060190565b607b60f81b815275226e616d65223a22416c6368656d795261686174202360501b60018201528251600090611ae7816017850160208801611d6a565b61088b60f21b6017918401918201527f226465736372697074696f6e223a226120626174746c65206f662073746f726960198201527f6e67206d65746164617461206f6e20626c6f636b636861696e222c00000000006039820152681134b6b0b3b2911d1160b91b60548201528351611b6781605d840160208801611d6a565b601160f91b605d9290910191820152607d60f81b605e820152605f01949350505050565b7f646174613a6170706c69636174696f6e2f6a736f6e3b6261736536342c000000815260008251611bc381601d850160208701611d6a565b91909101601d0192915050565b7f646174613a696d6167652f7376672b786d6c3b6261736536342c000000000000815260008251611c0881601a850160208701611d6a565b91909101601a0192915050565b6001600160a01b0385811682528416602082015260408101839052608060608201819052600090611c48908301846117dd565b9695505050505050565b60208152600061063160208301846117dd565b60208082526032908201527f4552433732313a207472616e7366657220746f206e6f6e20455243373231526560408201527131b2b4bb32b91034b6b83632b6b2b73a32b960711b606082015260800190565b60208082526031908201527f4552433732313a207472616e736665722063616c6c6572206973206e6f74206f6040820152701ddb995c881b9bdc88185c1c1c9bdd9959607a1b606082015260800190565b60008219821115611d1b57611d1b611e00565b500190565b600082611d2f57611d2f611e16565b500490565b6000816000190483118215151615611d4e57611d4e611e00565b500290565b600082821015611d6557611d65611e00565b500390565b60005b83811015611d85578181015183820152602001611d6d565b8381111561094f5750506000910152565b600181811c90821680611daa57607f821691505b60208210811415611dcb57634e487b7160e01b600052602260045260246000fd5b50919050565b6000600019821415611de557611de5611e00565b5060010190565b600082611dfb57611dfb611e16565b500690565b634e487b7160e01b600052601160045260246000fd5b634e487b7160e01b600052601260045260246000fd5b634e487b7160e01b600052603260045260246000fd5b634e487b7160e01b600052604160045260246000fd5b6001600160e01b0319811681146105e257600080fdfe4142434445464748494a4b4c4d4e4f505152535455565758595a6162636465666768696a6b6c6d6e6f707172737475767778797a303132333435363738392b2fa26469706673582212203dd44bd5d72e4c2f34151a64089c0e328657f3b86e13a8927b818e2dfdf5986064736f6c63430008070033",
  "linkReferences": {},
  "deployedLinkReferences": {}
}