{
  "_format": "hh-sol-artifact-1",
  "contractName": "VRFv2Consumer",
  "sourceName": "contracts/Chainlink/VRFv2Consumer.sol",
  "abi": [
    {
      "inputs": [
        {
          "internalType": "uint64",
          "name": "_subscriptionId",
          "type": "uint64"
        }
      ],
      "stateMutability": "nonpayable",
      "type": "constructor"
    },
    {
      "inputs": [
        {
          "internalType": "address",
          "name": "have",
          "type": "address"
        },
        {
          "internalType": "address",
          "name": "want",
          "type": "address"
        }
      ],
      "name": "OnlyCoordinatorCanFulfill",
      "type": "error"
    },
    {
      "inputs": [],
      "name": "numWords",
      "outputs": [
        {
          "internalType": "uint32",
          "name": "",
          "type": "uint32"
        }
      ],
      "stateMutability": "view",
      "type": "function"
    },
    {
      "inputs": [
        {
          "internalType": "uint256",
          "name": "requestId",
          "type": "uint256"
        },
        {
          "internalType": "uint256[]",
          "name": "randomWords",
          "type": "uint256[]"
        }
      ],
      "name": "rawFulfillRandomWords",
      "outputs": [],
      "stateMutability": "nonpayable",
      "type": "function"
    },
    {
      "inputs": [],
      "name": "requestRandomWords",
      "outputs": [],
      "stateMutability": "nonpayable",
      "type": "function"
    },
    {
      "inputs": [],
      "name": "s_owner",
      "outputs": [
        {
          "internalType": "address",
          "name": "",
          "type": "address"
        }
      ],
      "stateMutability": "view",
      "type": "function"
    },
    {
      "inputs": [
        {
          "internalType": "uint256",
          "name": "",
          "type": "uint256"
        }
      ],
      "name": "s_randomWords",
      "outputs": [
        {
          "internalType": "uint256",
          "name": "",
          "type": "uint256"
        }
      ],
      "stateMutability": "view",
      "type": "function"
    },
    {
      "inputs": [],
      "name": "s_requestId",
      "outputs": [
        {
          "internalType": "uint256",
          "name": "",
          "type": "uint256"
        }
      ],
      "stateMutability": "view",
      "type": "function"
    }
  ],
  "bytecode": "0x60a0604052600180546001600160a01b031916736168499c0cffcacd319c818142124b7a15e857ab1790557fd89b2bf150e3b9e13446986e571fb9cab24b13cea0a43ea20a6049a85cc807cc600355600480546e0200030d4000030000000000000000600160401b600160901b031990911617905534801561008057600080fd5b506040516105c03803806105c083398101604081905261009f91610104565b600154606081901b6001600160601b031916608052600080546001600160a01b039092166001600160a01b031992831617905560058054339216919091179055600480546001600160401b0319166001600160401b0392909216919091179055610134565b60006020828403121561011657600080fd5b81516001600160401b038116811461012d57600080fd5b9392505050565b60805160601c61046761015960003960008181610115015261015701526104676000f3fe608060405234801561001057600080fd5b50600436106100625760003560e01c80631fe543e3146100675780637ccfd7fc1461007c578063e0c86289146100ad578063e3978240146100b5578063e89e106a146100e0578063f6eaffc8146100f7575b600080fd5b61007a61007536600461034a565b61010a565b005b60045461009390600160701b900463ffffffff1681565b60405163ffffffff90911681526020015b60405180910390f35b61007a610196565b6005546100c8906001600160a01b031681565b6040516001600160a01b0390911681526020016100a4565b6100e960025481565b6040519081526020016100a4565b6100e9610105366004610318565b61027f565b336001600160a01b037f000000000000000000000000000000000000000000000000000000000000000016146101885760405163073e64fd60e21b81523360048201526001600160a01b037f000000000000000000000000000000000000000000000000000000000000000016602482015260440160405180910390fd5b61019282826102a0565b5050565b6005546001600160a01b031633146101ad57600080fd5b600054600354600480546040516305d3b1d360e41b81529182019290925267ffffffffffffffff8216602482015261ffff68010000000000000000830416604482015263ffffffff600160501b830481166064830152600160701b90920490911660848201526001600160a01b0390911690635d3b1d309060a401602060405180830381600087803b15801561024257600080fd5b505af1158015610256573d6000803e3d6000fd5b505050506040513d601f19601f8201168201806040525081019061027a9190610331565b600255565b6006818154811061028f57600080fd5b600091825260209091200154905081565b80516102b39060069060208401906102b8565b505050565b8280548282559060005260206000209081019282156102f3579160200282015b828111156102f35782518255916020019190600101906102d8565b506102ff929150610303565b5090565b5b808211156102ff5760008155600101610304565b60006020828403121561032a57600080fd5b5035919050565b60006020828403121561034357600080fd5b5051919050565b6000806040838503121561035d57600080fd5b8235915060208084013567ffffffffffffffff8082111561037d57600080fd5b818601915086601f83011261039157600080fd5b8135818111156103a3576103a361041b565b8060051b604051601f19603f830116810181811085821117156103c8576103c861041b565b604052828152858101935084860182860187018b10156103e757600080fd5b600095505b8386101561040a5780358552600195909501949386019386016103ec565b508096505050505050509250929050565b634e487b7160e01b600052604160045260246000fdfea26469706673582212208a491f220e60061a58294777f07013db75e58b1d3fe66547f181652926a20c9664736f6c63430008070033",
  "linkReferences": {},
  "deployedLinkReferences": {}
}